{
  "contractName": "Impmb",
  "abi": [
    {
      "inputs": [
        {
          "internalType": "uint256",
          "name": "",
          "type": "uint256"
        }
      ],
      "name": "topics",
      "outputs": [
        {
          "internalType": "string",
          "name": "title",
          "type": "string"
        },
        {
          "internalType": "string",
          "name": "content",
          "type": "string"
        },
        {
          "internalType": "address",
          "name": "owner",
          "type": "address"
        },
        {
          "internalType": "uint256",
          "name": "ts",
          "type": "uint256"
        }
      ],
      "stateMutability": "view",
      "type": "function",
      "constant": true
    },
    {
      "inputs": [
        {
          "internalType": "string",
          "name": "title",
          "type": "string"
        },
        {
          "internalType": "string",
          "name": "content",
          "type": "string"
        }
      ],
      "name": "postPrediction",
      "outputs": [],
      "stateMutability": "nonpayable",
      "type": "function"
    },
    {
      "inputs": [],
      "name": "getCount",
      "outputs": [
        {
          "internalType": "uint256",
          "name": "",
          "type": "uint256"
        }
      ],
      "stateMutability": "view",
      "type": "function",
      "constant": true
    }
  ],
  "bytecode": "0x608060405234801561001057600080fd5b506107d7806100206000396000f3fe608060405234801561001057600080fd5b50600436106100415760003560e01c806318d9adab146100465780631d2b73ec14610079578063a87d942c14610095575b600080fd5b610060600480360381019061005b919061040f565b6100b3565b6040516100709493929190610525565b60405180910390f35b610093600480360381019061008e91906106ad565b610223565b005b61009d610316565b6040516100aa9190610725565b60405180910390f35b600081815481106100c357600080fd5b90600052602060002090600402016000915090508060000180546100e69061076f565b80601f01602080910402602001604051908101604052809291908181526020018280546101129061076f565b801561015f5780601f106101345761010080835404028352916020019161015f565b820191906000526020600020905b81548152906001019060200180831161014257829003601f168201915b5050505050908060010180546101749061076f565b80601f01602080910402602001604051908101604052809291908181526020018280546101a09061076f565b80156101ed5780601f106101c2576101008083540402835291602001916101ed565b820191906000526020600020905b8154815290600101906020018083116101d057829003601f168201915b5050505050908060020160009054906101000a900473ffffffffffffffffffffffffffffffffffffffff16908060030154905084565b600060405180608001604052808481526020018381526020013373ffffffffffffffffffffffffffffffffffffffff16815260200142815250908060018154018082558091505060019003906000526020600020906004020160009091909190915060008201518160000190805190602001906102a1929190610322565b5060208201518160010190805190602001906102be929190610322565b5060408201518160020160006101000a81548173ffffffffffffffffffffffffffffffffffffffff021916908373ffffffffffffffffffffffffffffffffffffffff1602179055506060820151816003015550505050565b60008080549050905090565b82805461032e9061076f565b90600052602060002090601f0160209004810192826103505760008555610397565b82601f1061036957805160ff1916838001178555610397565b82800160010185558215610397579182015b8281111561039657825182559160200191906001019061037b565b5b5090506103a491906103a8565b5090565b5b808211156103c15760008160009055506001016103a9565b5090565b6000604051905090565b600080fd5b600080fd5b6000819050919050565b6103ec816103d9565b81146103f757600080fd5b50565b600081359050610409816103e3565b92915050565b600060208284031215610425576104246103cf565b5b6000610433848285016103fa565b91505092915050565b600081519050919050565b600082825260208201905092915050565b60005b8381101561047657808201518184015260208101905061045b565b83811115610485576000848401525b50505050565b6000601f19601f8301169050919050565b60006104a78261043c565b6104b18185610447565b93506104c1818560208601610458565b6104ca8161048b565b840191505092915050565b600073ffffffffffffffffffffffffffffffffffffffff82169050919050565b6000610500826104d5565b9050919050565b610510816104f5565b82525050565b61051f816103d9565b82525050565b6000608082019050818103600083015261053f818761049c565b90508181036020830152610553818661049c565b90506105626040830185610507565b61056f6060830184610516565b95945050505050565b600080fd5b600080fd5b7f4e487b7100000000000000000000000000000000000000000000000000000000600052604160045260246000fd5b6105ba8261048b565b810181811067ffffffffffffffff821117156105d9576105d8610582565b5b80604052505050565b60006105ec6103c5565b90506105f882826105b1565b919050565b600067ffffffffffffffff82111561061857610617610582565b5b6106218261048b565b9050602081019050919050565b82818337600083830152505050565b600061065061064b846105fd565b6105e2565b90508281526020810184848401111561066c5761066b61057d565b5b61067784828561062e565b509392505050565b600082601f83011261069457610693610578565b5b81356106a484826020860161063d565b91505092915050565b600080604083850312156106c4576106c36103cf565b5b600083013567ffffffffffffffff8111156106e2576106e16103d4565b5b6106ee8582860161067f565b925050602083013567ffffffffffffffff81111561070f5761070e6103d4565b5b61071b8582860161067f565b9150509250929050565b600060208201905061073a6000830184610516565b92915050565b7f4e487b7100000000000000000000000000000000000000000000000000000000600052602260045260246000fd5b6000600282049050600182168061078757607f821691505b6020821081141561079b5761079a610740565b5b5091905056fea264697066735822122092bd84e8db76a1226f961ace8e1ac535be7e4b43990a2d13872eb9c3244d2b8464736f6c634300080c0033",
  "immutableReferences": {},
  "source": "// SPDX-License-Identifier: MIT\r\npragma solidity 0.8.12;\r\n\r\ncontract Impmb {\r\n\r\n    struct Prediction {\r\n        string title;\r\n        string content;\r\n        address owner;\r\n        uint ts;\r\n    }\r\n\r\n    Prediction[] public topics;\r\n\r\n    function postPrediction(string memory title, string memory content) public {\r\n        topics.push(Prediction(title, content, msg.sender, block.timestamp));\r\n    }\r\n\r\n    function getCount() public view returns(uint) {\r\n        return topics.length;\r\n    }\r\n}\r\n",
  "sourcePath": "E:\\Immutable_Message_Book\\contracts\\Impmb.sol",
  "compiler": {
    "name": "solc",
    "version": "0.8.12+commit.f00d7308.Emscripten.clang"
  },
  "schemaVersion": "3.4.5",
  "updatedAt": "2022-03-09T15:04:30.659Z",
  "networkType": "ethereum",
  "devdoc": {
    "kind": "dev",
    "methods": {},
    "version": 1
  },
  "userdoc": {
    "kind": "user",
    "methods": {},
    "version": 1
  }
}